:1000000012C100001FC4000098C4000034C10000E9
:1000100032C1000030C100002EC100002CC1000020
:100020002AC1000028C100000C941A0D0C94930DF5
:1000300022C1000020C100001EC100001CC1000040
:100040001AC1000018C1000016C1000014C1000050
:1000500012C1000010C100000EC100000C947E0C03
:100060000AC1000008C1000006C1000004C1000070
:1000700002C1000000C10000FEC00000FCC0000082
:10008000FAC00000F8C00000F6C00000F4C0000094
:10009000F2C00000F0C00000EEC00000ECC00000A4
:1000A000EAC00000E8C00000E6C00000A0079B070F
:1000B000D207AB07E8077F087F087F087F087F0823
:1000C0007F087F0807087F087F08E3077F08040888
:1000D0007F087F0897077F08BF07BB07F70ADA0A80
:1000E000190B190B190BFF0A090B190B110B190B23
:1000F000E50AED0A012302230423082380230129B2
:100100000229042908294026802640298029102315
:1001100020234023802F402F202F102F022F012F2C
:1001200010292029402C7DFD7DFB7DF77DEF7DDFB3
:100130007E7F7EBF7EDF7EEF7EFD7EFE7DFE000148
:10014000040506070D0C0B0A09080A0B0C0D07061F
:100150000504010008000100000602120002000070
:10016000C3014300030000BF010401030904A5010A
:1001700018020309048D0116030309047F010C0C06
:1001800003310032003300340035000000160355FF
:1001900000530042002000530065007200690061B6
:1001A000006C00000018035400650065006E0073C9
:1001B0000079006400750069006E006F00000004A3
:1001C00003090409024300020100C03209040000CF
:1001D00001020201000524001001052401000104B0
:1001E00024020605240600010705820308004009D1
:1001F000040100020A000000070503024000000796
:100200000584024000001201000202000020C01616
:1002100083040001010203010001C10201803601D3
:1002200081369708F11011241FBECFEFDAE0DEBF50
:10023000CDBF11E0A0E0B1E0E6E0F9E202C0059038
:100240000D92A835B107D9F722E0A8E5B1E001C0C9
:100250001D92A231B207E1F712E0C6E2D2E004C07B
:100260002297FE010E94E911C232D107C9F70E940C
:10027000250A0C948114C4CEDB010D900020E9F70F
:10028000AD0141505109461B570BDC01ED91FC912A
:100290000280F381E02D09940F931F93CF93DF9396
:1002A000EC01EADF8C01CE010E94A209800F911FB0
:1002B000DF91CF911F910F9108950F931F93CF93CB
:1002C000DF93EC010E94180A8C01CE010E94A20962
:1002D000800F911FDF91CF911F910F9108950F9380
:1002E0001F93FC018A019B010E94D90C601B710BBA
:1002F000820B930B6083718382839383CF011F9161
:100300000F910895CF93DF93EC010E94B80ACE01BC
:100310009927FC010E94530B28E02150F1F7FC01C2
:100320000E944D0B24E12150F1F7FC010E94530B78
:100330008C2F0E94250B20E432E44FE050E061E076
:100340008C2F0E9409112AE330E040E050E00E9427
:10035000CB11CA01B9010E941E130E94EB12DF915A
:10036000CF9108951092BE011092BF011092C0016A
:100370001092C1018091150190911601A091170171
:10038000B09118018093C2019093C301A093C4015E
:10039000B093C5011092C6011092C7011092C80116
:1003A0001092C9011092CA011092CB011092CC0197
:1003B0001092CD018093CE019093CF01A093D001F4
:1003C000B093D1018093D2019093D301A093D40133
:1003D000B093D5011092D6011092D7011092D80196
:1003E0001092D9011092DA011092DB011092DC0117
:1003F0001092DD0121E030E03093DF012093DE0137
:1004000010929C0110929D0110929E0110929F01EA
:100410008093A0019093A101A093A201B093A301A6
:100420001092A4011092A5011092A6011092A701AA
:100430001092A8011092A9011092AA011092AB018A
:100440008093AC019093AD01A093AE01B093AF0146
:100450008093B0019093B101A093B201B093B30126
:100460001092B4011092B5011092B6011092B7012A
:100470001092B8011092B9011092BA011092BB010A
:100480003093BD012093BC0181E08093E001089589
:100490002F923F924F925F926F927F928F929F9294
:1004A000AF92BF92CF92DF92EF92FF920F931F9382
:1004B000CF93DF93CDB7DEB760970FB6F894DEBF6A
:1004C0000FBECDBF1C018091120190911301892BA9
:1004D00031F481E090E09093130180931201009138
:1004E0001201109113014090E7015090E8016090D3
:1004F000E9017090EA018091E5019091E601B8016F
:100500000E949611882777FD8095982F0E941E13D0
:10051000A30192010E94D2134B015C016093E1019F
:100520007093E2018093E3019093E401E090100165
:10053000F0901101B701882777FD8095982F0E94D0
:100540001E132CEA35EC47E257E30E94CE1318162F
:10055000BCF4C801B7010E949611882777FD8095E9
:10056000982F0E941E13A30192010E94D213609340
:100570000A0170930B0180930C0190930D010CC044
:1005800080E090E5A3ECB7E480930A0190930B011F
:10059000A0930C01B0930D01D101CD90DD90ED90B1
:1005A000FC9020E030E0A901C701B6010E94CE1303
:1005B00087FD06C081E090E0F10191A380A30BC00C
:1005C0008FEF9FEFD10191969C938E939097F7FABE
:1005D000F094F7F8F094A701960160E074E284EFDC
:1005E00099E40E948312F101648775878687978753
:1005F000208D318D428D538D29833A834B835C83CB
:10060000248F358F468F578F2481358146815781BE
:100610002D833E834F8358870E941A1269877A87F9
:100620008B879C87F101608F718F828F938F609190
:100630000E0170910F01882777FD8095982F0E94F9
:100640001E136B017C01A3019201C501B4010E943C
:1006500083124B015C01B801882777FD8095982FA4
:100660000E941E136D877E878F87988B20910A01C9
:1006700030910B0140910C0150910D01C301B20169
:100680000E94831220E030E040E85FE30E941B12EA
:1006900029853A854B855C850E94D213A701960176
:1006A0000E9483122B013C012D813E814F81588590
:1006B000C501B4010E94D213A70196010E948312C2
:1006C0009B01AC01C301B2010E941A122B013C0133
:1006D000A701960169817A818B819C810E94831296
:1006E0009B01AC01C301B2010E941A122B013C0113
:1006F000D10150966D917D918D919C9153979B0165
:10070000AC010E941B12F101248935894689578961
:100710000E941A12A50194010E94D213A70196010A
:100720000E9483129B01AC01C301B2010E941B1203
:100730009B01AC016D857E858F8598890E94D213BF
:1007400020911401222339F09B01AC0160E070E09C
:10075000CB010E941A12D10118962D913D914D9115
:100760005C911B970E941B126B017C0120E030E022
:10077000A9010E947F12181634F4F101C086D186B7
:10078000E286F38607C0D10118961D921D921D9234
:100790001C921B9720E030E04FE753E4F1016085A5
:1007A0007185828593850E94CE1318164CF480E0E3
:1007B00090E0AFE7B3E4F10180879187A287B38728
:1007C00060960FB6F894DEBF0FBECDBFDF91CF911C
:1007D0001F910F91FF90EF90DF90CF90BF90AF905F
:1007E0009F908F907F906F905F904F903F902F9051
:1007F00008951092960180E1E6E8F1E0DF01982F7C
:100800001D929A95E9F7E6E7F1E0DF011D928A95DE
:10081000E9F7109272011092730110927401109214
:10082000750110926E0110926F011092700110927A
:10083000710110929B0110929A01109299011092ED
:10084000980108951F920F920FB60F9211240F93E3
:100850001F932F933F934F935F936F937F938F9348
:100860009F93AF93BF93EF93FF9340E050E0BA01A3
:1008700080EF91E034DD809163018823F9F00E94DC
:10088000D90C0091F8011091F9012091FA013091F1
:10089000FB01601B710B820B930B609368017093DB
:1008A000690180936A0190936B0140E050E0BA01C6
:1008B00088EF91E014DD81E080936D0190916301F8
:1008C00081E0911180E0809363018091DE0190913D
:1008D000DF01019761F480915E0190915F01A09129
:1008E0006001B09161010196A11DB11D0BC0809105
:1008F0005E0190915F01A0916001B091610101974B
:10090000A109B10980935E0190935F01A0936001FA
:10091000B0936101FF91EF91BF91AF919F918F9142
:100920007F916F915F914F913F912F911F910F9107
:100930000F900FBE0F901F9018951F920F920FB639
:100940000F9211240F931F932F933F934F935F9315
:100950006F937F938F939F93AF93BF93EF93FF9387
:1009600040E050E0BA018CEE91E0B9DC8091620188
:100970008823F9F00E94D90C0091F4011091F5013F
:100980002091F6013091F701601B710B820B930BE4
:100990006093640170936501809366019093670191
:1009A00040E050E0BA0184EF91E099DC81E080936F
:1009B0006C019091620181E0911180E0809362016D
:1009C0008091BC019091BD01019761F480915A0121
:1009D00090915B01A0915C01B0915D010196A11D18
:1009E000B11D0BC080915A0190915B01A0915C01F7
:1009F000B0915D010197A109B10980935A019093CB
:100A00005B01A0935C01B0935D01FF91EF91BF91F9
:100A1000AF919F918F917F916F915F914F913F9196
:100A20002F911F910F910F900FBE0F901F9018954F
:100A3000892B71F410925E0110925F011092600197
:100A40001092610140E050E0BA0180EF91E00DC0EA
:100A500010925A0110925B0110925C0110925D019C
:100A600040E050E0BA018CEE91E039CC10925E018A
:100A700010925F01109260011092610140E050E01D
:100A8000BA0180EF91E02BDC81E090E0D1CF50986B
:100A9000589851985998E89AE99AE9E6F0E08081E7
:100AA0008160808380818D7F80838081846080836A
:100AB0008081877F80837894D9CF0F931F93CF93C2
:100AC000DF938091580154D58091080151D58091D0
:100AD00006014ED5809104014BD502E011E0F801EA
:100AE000808146D5C0E0D1E0888142D560E070E0E9
:100AF000F80180814ED560E070E088814AD5E091B0
:100B00005801F0915901FF27C8D5E0910801F091F3
:100B10000901FF27C2D5E0910601F0910701FF27E7
:100B2000BCD5E0910401F0910501FF27B6D5DF9116
:100B3000CF911F910F91089540E051EE60E070E079
:100B400088E092E00E948910A2DFB7DF0BCC97FF0C
:100B500005C091958195910921E001C020E0BC017B
:100B60008F3F910519F014F06FEF70E0E09158019C
:100B7000F09159018091080190910901FF272130DE
:100B800029F48BD59927FC018ED504C08CD59927E3
:100B9000FC0183D580910201FCC497FF05C09195AB
:100BA0008195910921E001C020E0BC018F3F9105B2
:100BB00019F014F06FEF70E0E0910401F09105017D
:100BC0008091060190910701FF27213029F46BD510
:100BD0009927FC0162D504C060D59927FC0163D533
:100BE00080910001D6C40F931F939091EB018091E7
:100BF000E001911111C0811101C0B4DB40E050E06F
:100C0000BA0188EF91E06BDB40E050E0BA0184EF7D
:100C100091E01F910F9163CB81111092E0018091BF
:100C20006D01882309F46DC08091CE019091CF01B0
:100C3000A091D001B091D1018093D2019093D301C2
:100C4000A093D401B093D5018091C2019091C301CA
:100C5000A091C401B091C5018093CE019093CF01C2
:100C6000A093D001B093D101F89410926D016091DE
:100C700068017091690180916A0190916B010E94F5
:100C80001E136093C2017093C3018093C4019093BB
:100C9000C501789420E030E543EC57E46091C2014F
:100CA0007091C3018091C4019091C5010E94CE133F
:100CB000181664F480E090E5A3ECB7E48093C201D9
:100CC0009093C301A093C401B093C5018EEB91E052
:100CD000DFDB6091DE017091DF01882777FD809571
:100CE000982F0E941E132091C6013091C701409198
:100CF000C8015091C9010E94D2130E94EB12CB018E
:100D000026DF57D60091F0011091F1012091F201F8
:100D10003091F301601B710B820B930B0091250145
:100D200010912601209127013091280106171707FD
:100D30002807390760F48091DE019091DF012FEFE1
:100D4000AC01249FC001259F900D112400DF8091EC
:100D50006C01882309F46DC08091AC019091AD01C4
:100D6000A091AE01B091AF018093B0019093B10119
:100D7000A093B201B093B3018091A0019091A10121
:100D8000A091A201B091A3018093AC019093AD0119
:100D9000A093AE01B093AF01F89410926C016091F2
:100DA00064017091650180916601909167010E94D4
:100DB0001E136093A0017093A1018093A2019093F0
:100DC000A301789420E030E543EC57E46091A00162
:100DD0007091A1018091A2019091A3010E94CE1374
:100DE000181664F480E090E5A3ECB7E48093A001CA
:100DF0009093A101A093A201B093A3018CE991E08B
:100E000047DB6091BC017091BD01882777FD80951B
:100E1000982F0E941E132091A4013091A5014091AA
:100E2000A6015091A7010E94D2130E94EB12CB01A0
:100E3000B4DEBFD50091EC011091ED012091EE01DF
:100E40003091EF01601B710B820B930B0091250118
:100E500010912601209127013091280106171707CC
:100E60002807390770F48091BC019091BD012FEFE4
:100E7000AC01249FC001259F900D11241F910F915B
:100E80008CCE1F910F910895CF93DF93EB015FDE1E
:100E9000CE01DF91CF9181CE8F929F92AF92BF9280
:100EA000CF92DF92EF92FF920F931F93CF93DF9336
:100EB000CDB7DEB72A970FB6F894DEBF0FBECDBF11
:100EC00086E891E09A8789870E9435148C016C012D
:100ED000EE24D7FCE094FE2CC0927201D0927301F4
:100EE000E0927401F092750186E791E00E9435145A
:100EF000AC01662757FD6095762F40936E015093A5
:100F00006F01609370017093710180909601992434
:100F100087FC9094A92CB92CF401E156F109E83131
:100F2000F10508F0ECC0EA5AFF4F0C94E7118E016E
:100F30000F5F1F4FB7C040E051EE60E070E060C04F
:100F4000802FD7D2AC01662757FD6095762F88E0B9
:100F500092E06ED20CC0A8015527FA0137D44E2F6B
:100F600050E060E070E020E088E092E005D288E0A8
:100F700092E0E8D1C9C0BC01802F0BD3BDC04115A0
:100F800051056105710521F41127F8018CD3B4C016
:100F9000413051056105710509F0AEC01127F80116
:100FA0007CD3AAC0411551056105710519F4802F44
:100FB0004CD3A2C0413051056105710509F09CC0B8
:100FC000802FD6D299C0C8019DD9AB01BC0118C0F1
:100FD00040915E0150915F016091600170916101EB
:100FE00088E092E025D264E371E088E092E044D9A1
:100FF00040915A0150915B0160915C0170915D01DB
:1010000088E092E05AD980C031DDACD975C00FB606
:10101000F8948091FD019091FE01A091FF01B091A3
:1010200000020FBE80931D0190931E01A0931F012B
:10103000B0932001CD28CE28CF2861F4452B462B34
:10104000472B41F460E070E080E090E01DDF1092FB
:10105000EB0103C081E08093EB016091720170911C
:10106000730180917401909175010E941E13609329
:10107000BE017093BF018093C0019093C101609144
:101080006E0170916F0180917001909171010E94C9
:101090001E1360939C0170939D0180939E01909319
:1010A0009F012AC0AE01475F5F4F66E371E089850B
:1010B0009A850E945214009739F00E943514F80165
:1010C000819391938F01EECF89819A81909313013F
:1010D000809312018B819C819093E6018093E501BE
:1010E0008D819E8190931101809310018F8198854D
:1010F00090930F0180930E0161E371E002C068E3F9
:1011000071E088E092E0C8D82A960FB6F894DEBF66
:101110000FBECDBFDF91CF911F910F91FF90EF9048
:10112000DF90CF90BF90AF909F908F90089541D463
:101130006093F8017093F9018093FA019093FB0199
:1011400038D46093F4017093F5018093F601909385
:10115000F7012FD46093F0017093F1018093F201B5
:101160009093F30126D46093EC017093ED0180938A
:10117000EE019093EF0120911501309116014091FD
:101180001701509118016091190170911A01809115
:101190001B0190911C010E941B1220E030E040E0F6
:1011A0005FE30E94D2136093E7017093E80180939C
:1011B000E9019093EA0108950F931F93CF93DF9372
:1011C000C2E0D0E001E010E088E092E036D61816E8
:1011D00019060CF063C088E092E068D6809397010E
:1011E00020919A0130919B018D30B9F42130310565
:1011F00039F4E0919801F0919901EA57FE4F09C046
:101200002230310539F4E0919801F0919901EA58C2
:10121000FE4F108241DEEDDAD7CF8032D9F42115AE
:10122000310529F410939B0100939A01CDCF213011
:10123000310551F6E0919801F0919901EA57FE4F7E
:101240001082D0939B01C0939A0110929901109241
:101250009801BACF2115310519F480939601B4CFC6
:101260002130310541F42091980130919901F90123
:10127000EA57FE4F0BC02230310509F0A5CF20916F
:10128000980130919901F901EA58FE4F80832F5F50
:101290003F4F309399012093980196CF0FB6F89461
:1012A0004091FD015091FE016091FF01709100029B
:1012B0000FBE8091210190912201A0912301B09154
:1012C000240184179507A607B707A0F48CDC80914A
:1012D000210190912201A0912301B09124010A964D
:1012E000A11DB11D8093210190932201A0932301A0
:1012F000B09324010FB6F8948091FD019091FE0106
:10130000A091FF01B09100020FBE40911D015091CC
:101310001E0160911F0170912001841B950BA60B8B
:10132000B70B893B9B40A105B10538F060E070E048
:1013300080E090E0A9DD1092EB01DF91CF911F9149
:101340000F910895CF93DF9300D0CDB7DEB72DE096
:1013500029832AE02A83DC01ED91FC910280F3814C
:10136000E02D42E050E0BE016F5F7F4F09950F9086
:101370000F90DF91CF910895CF93DF93CDB7DEB774
:101380002B970FB6F894DEBF0FBECDBFDE011C96C3
:10139000E3E34E9F44270E0E411D302D5E9F5527DF
:1013A000400D511D6E9F6627500D611D7E9F772752
:1013B000600D711D1124340F451F561F671F711DCD
:1013C000350F461F571F611D711D370F411D511DE0
:1013D000611D711D76956795579547953795EAE09C
:1013E0003E9F312D1124305D3E934115510561051D
:1013F000710509F0CDCF222321F01197FD012DE2D7
:101400002083FC0120813181AE014A1B5B0B445FCC
:101410005F4FF90122813381BD01F90109952B96B6
:101420000FB6F894DEBF0FBECDBFDF91CF91089508
:1014300077FF09C070956095509541955F4F6F4F4C
:101440007F4F21E001C020E097CF24D075DBB4DED0
:10145000FECF1DBA109268001CBC10BE1FBA1092BD
:101460007A0010926E0010926F001092710010922C
:1014700072001092C900ECEBF0E0108214B817B8BB
:101480001AB81DB810BA108215B818B81BB81EB813
:1014900011BA0895F894E1E6F0E020E82083108284
:1014A00083E084BD85BDEEE6F0E0808181608083CD
:1014B00081E08093800092E090938100809390007F
:1014C000909391009093C00094E09093C10080931A
:1014D000C2008093C3001092C40086E880937A0013
:1014E00020937B0010927E0010927D0081D2789430
:1014F00008958731D0F5E82FF0E0E25CFE4FE491EB
:10150000E83070F480917E0021E030E00E2E01C0C2
:10151000220F0A94EAF7822B80937E0080E80EC0A7
:10152000E85080917D0021E030E00E2E01C0220FB6
:101530000A94EAF7822B80937D0080EA80937B00F7
:10154000809129018E2B80937C0080917A008064A9
:1015500080937A0080917A0086FDFCCF809178009C
:101560002091790090E0922B089580E090E008951A
:10157000893170F4E4EFF0E0880FE80FF11D9591E8
:10158000E491F0E02FB7F8948181892B81832FBFFC
:1015900008951F93CF93DF93182FEB01E9DF412FBD
:1015A00050E0FA013497EC30F10508F042C0E259FE
:1015B000FF4F0DC7209721F4589884B58F7D03C045
:1015C000C8BD84B5806284BD3CC0D0938900C093FF
:1015D000880080918000806807C0D0938B00C09302
:1015E0008A00809180008062809380002AC0D0931E
:1015F0008D00C0938C00809180008860F5CFD093DF
:101600009900C0939800809190008068809390002A
:1016100018C0C093CF008091C00080688093C00044
:1016200010C0C093D2008091C20088608093C20035
:1016300008C0E12FF0E0C038D10514F434D001C067
:101640002CD0DF91CF911F910895893128F5A5EF16
:10165000A80FAC3048F4E6E2F1E0AA0FEA0FF11D62
:10166000A591B0E0959103C09FEFA0E0B0E0E4EF5A
:10167000F0E0880FE80FF11D2591E491F0E03FB70D
:10168000F8948181209582238183828182238283C1
:101690008C9189238C933FBF0895E93150F4EE0F6C
:1016A000E65AF44F0994E93120F4EE0FE457F44F71
:1016B00009940895289A0895299A08952A9A0895D0
:1016C0002B9A08952F9A6AC0589A58C0599A08952B
:1016D0005A9A08955B9A0895469A66C0479A6AC0D6
:1016E0005E9A08955F9A6CC02C9A08952D9A4AC00C
:1016F0002E9A4EC08F9A08958E9A08958D9A0895C5
:101700008C9A0895899A0895889A08955C9A089504
:101710005D9A0895769A08952898089529980895CD
:101720002A9808952B9808952F9838C0589826C065
:10173000599808955A9808955B980895469834C02A
:10174000479838C05E9808955F983AC02C980895DD
:101750002D9818C02E981CC08F9808958E980895C3
:101760008D9808958C98089589980895889808957B
:101770005C9808955D98089576980895E4B5EF7D96
:10178000E4BD0895E0918000EF77E0938000089534
:10179000E0918000EF7DE09380000895E09180006B
:1017A000E77FE09380000895E0919000EF77E09369
:1017B00090000895E091C000EF77E093C000089595
:1017C000E091C200E77FE093C2000895E93130F470
:1017D000EE0FEE0FFF27EE50F44F0994EE27089519
:1017E000E1E00895E3B1E170D9F70895E3B1E27063
:1017F000B9F70895E3B1E47099F70895E3B1E8709B
:1018000079F70895E3B1E07859F70895E9B1E17007
:1018100039F70895E9B1E27019F70895E9B1E47074
:10182000F9F60895E9B1E870D9F60895E6B1E074E3
:10183000B9F60895E6B1E07899F60895E9B1E07453
:1018400079F60895E9B1E07859F60895E3B1E071C9
:1018500039F60895E3B1E07219F60895E3B1E07442
:1018600029F50895EFB1E07809F50895EFB1E07436
:10187000E9F40895EFB1E072C9F40895EFB1E071B1
:10188000A9F40895EFB1E27089F40895EFB1E17021
:1018900069F40895E9B1E07149F40895E9B1E0729D
:1018A00029F40895ECB1E07409F40895E1E0089595
:1018B000F89484B7877F84BF8091600080618093B3
:1018C00060001092600080E29EE40197F1F781E0F1
:1018D0008093E00080E28093D80080E69AEE019742
:1018E000F1F7B7DD0C94003FFFCFF894B2DD80E64E
:1018F0009AEE0197F1F70C940000FFCF8F938FB70A
:101900008F938091FC018D5F8D37D0F48093FC0123
:101910008091FD018F5F8093FD01D8F08091FE01E1
:101920008F4F8093FE01A8F08091FF018F4F80932D
:10193000FF0178F0809100028F4F8093000209C070
:101940008D578093FC018091FD018E5F8093FD0196
:1019500028F7809101028C5F8093010258F08091FA
:1019600002028F4F8093020228F0809103028F4F72
:10197000809303028F918FBF8F9118950F931F93C0
:101980008B019C0116D0AB01011511052105310514
:1019900069F00FD0641B750B683E7340A8F30150CB
:1019A00011092109310948515C4FEECF1F910F9168
:1019B00008950FB6F89466B515B270910102809142
:1019C0000202909103020FBE10FE05C06F3F19F096
:1019D0007C5F8F4F9F4F11240024660F001C660F01
:1019E000001C702908958091E80080FFFCCF0895C5
:1019F0008091D80087FF02C085FF1BC081E08093E3
:101A0000D70080EA8093D80082E189BD09B400FE46
:101A1000FDCF80E98093D8001092E000109214026C
:101A200010921302109212021092E1008DE0809346
:101A3000E20008951F920F920FB60F9211242F9378
:101A40003F934F935F936F937F938F939F93AF9346
:101A5000BF93EF93FF938091E1001092E10083FF29
:101A600011C01092E90091E09093EB001092EC000D
:101A700092E29093ED0098E09093F000109214029F
:101A80001092120282FF1DC0909114029923C9F096
:101A900090910702992359F0915090930702911168
:101AA00006C094E09093E9009AE39093E800909147
:101AB0000602992331F0915090930602911101C0D2
:101AC000F7DE80FF0CC090E19093E20010921402C8
:101AD00091E09093130290EA9093D80019BC9091F2
:101AE0001302992379F084FF0DC082E189BD09B406
:101AF00000FEFDCF80E98093D8008DE08093E20066
:101B000010921302FF91EF91BF91AF919F918F912E
:101B10007F916F915F914F913F912F910F900FBEE9
:101B20000F901F9018951F920F920FB60F921124CD
:101B3000EF92FF920F931F932F933F934F935F93D7
:101B40006F937F938F939F93AF93BF93EF93FF9385
:101B5000CF93DF931F92CDB7DEB71092E90080914B
:101B6000E80083FF39C13091F1002091F100E0904D
:101B7000F100F090F1000091F1001091F1008091DE
:101B8000F1009091F10042EF4093E800263009F017
:101B90003FC046E0E5E5F1E0259135912E153F0582
:101BA00011F0359615C0259135912017310711F0A8
:101BB00033960EC02591359144918F3F910519F0D0
:101BC00010F08FEF90E0841708F4482F5EEF08C004
:101BD000415011F701C1481B5093E8004423A9F07C
:101BE0008091E800982F9570D9F382FDF8C0842F7A
:101BF000413208F080E2982F992369F3F901259189
:101C00002093F1009F019150F7CF803249F3E7C054
:101C1000253049F48EEF8093E800E5DE8E2D806854
:101C20008093E300DCC0293001F53111B2C0E092AD
:101C3000140210921202109207028EEF8093E800B5
:101C400081E0E8E1F2E08093E90095919093EB0068
:101C5000992331F095919093EC0095919093ED003C
:101C60008F5F853081F78EE1B2C0283049F430387B
:101C700009F08FC0B8DE809114028093F10085C016
:101C8000213291F4313A09F084C0ADDEEAE2F1E0AC
:101C9000CF01019620812093F10021E0813392074A
:101CA00009F473C0FC01F4CF203209F04AC031328C
:101CB00009F06FC08091E80082FFFCCFEAE2F1E01A
:101CC000CF0101962091F1002083E1E081339E074E
:101CD00011F0FC01F5CF8BEF8093E8008EEF80933D
:101CE000E80030912A0140912B0180912C01209134
:101CF0002D0190E0A0E0B0E0DC0199278827942B2B
:101D0000832BB22B86389105A105B10521F48FE014
:101D10008093060264C086399105A105B10509F0DA
:101D20005EC084E08093E9009FEF8091EE008370B5
:101D300039F09093E8008091E80082FDFCCFF5CF68
:101D4000D4DD223229F4313221F5E092120205C0AD
:101D5000233229F4313209F03FC045DE16C021118B
:101D600018C0398340DE3981323851F40093E900DC
:101D70008091EB0085FB882780F91092E90001C073
:101D800080E08093F1001092F1008EEF8093E800E4
:101D900026C0822F8D7F8130F9F43230E9F4EF28AC
:101DA000D9F40F778FEF800F8630B0F48EEF8093E9
:101DB000E8000093E900233079F089E18093EB009B
:101DC00081E090E0002E01C0880F0A94EAF780932A
:101DD000EA001092EA0003C081E28093EB000F90CA
:101DE000DF91CF91FF91EF91BF91AF919F918F9133
:101DF0007F916F915F914F913F912F911F910F9123
:101E0000FF90EF900F900FBE0F901F901895CF93FB
:101E1000DF931F92CDB7DEB76983DC01ED91FC91B2
:101E20000280F381E02D41E050E0BE016F5F7F4F03
:101E300009950F90DF91CF9108953FB7F8942091C5
:101E40001402211102C040E010C023E02093E900F9
:101E50004091F200411109C02091E80022FFF3CF28
:101E600025FDF1CF2BE62093E8003FBFFC01208544
:101E7000318537FD03C04F3F09F04F5F842F90E05D
:101E80000895CF93DF93EC018885998597FF09C06A
:101E9000E881F9810680F781E02DCE0109959987C7
:101EA000888788859985DF91CF910895FC012085E9
:101EB000318537FD07C04FEF5FEF51874087C9017C
:101EC000992708959FB7F89480911402882369F0A8
:101ED00083E08093E9002BE68091E80085FD09C04E
:101EE00082FF03C02093E800F7CF9FBF8FEF9FEFE3
:101EF00008958091F1002091E80025FD03C02BE6B4
:101F00002093E8009FBF90E00895CF92DF92EF9278
:101F1000FF920F931F93CF93DF939C018091140244
:101F2000811104C081E0E9018A8311C00FB7F894E0
:101F300084E08093E90080910502882369F0809114
:101F4000E80085FD07C00FBF81E0F901828380E0D2
:101F500090E0D6C01092050280E090E0E4E0FE2E12
:101F6000F0E4EF2EA1EFB0E0CAE3DC2ED3E0CD2EFB
:101F70004115510509F4C3C0E091E400E15FF0911F
:101F8000E800F5FD18C00FBFF091E400FE1306C095
:101F900041E040930502E9014A83B2C0F091140286
:101FA000F11104C041E0F9014283AAC00FB7F894CF
:101FB000F092E900E4CFE091F2001E2D1E1BE12F0C
:101FC000F0E04E175F0708F4142FE12FF0E04E1BEE
:101FD0005F0B8E0F9F1FEB01E0E4E11BE03428F460
:101FE000EE0FFF27EA50F04F099480C019911C931F
:101FF00019911C9319911C9319911C9319911C937D
:1020000019911C9319911C9319911C9319911C936C
:1020100019911C9319911C9319911C9319911C935C
:1020200019911C9319911C9319911C9319911C934C
:1020300019911C9319911C9319911C9319911C933C
:1020400019911C9319911C9319911C9319911C932C
:1020500019911C9319911C9319911C9319911C931C
:1020600019911C9319911C9319911C9319911C930C
:1020700019911C9319911C9319911C9319911C93FC
:1020800019911C9319911C9319911C9319911C93EC
:1020900019911C9319911C9319911C9319911C93DC
:1020A00019911C9319911C9319911C9319911C93CC
:1020B00019911C9319911C9319911C9319911C93BC
:1020C00019911C9319911C9319911C9319911C93AC
:1020D00019911C9319911C9319911C9319911C939C
:1020E00019911C9319911C9319911C93BE01E091B5
:1020F000E800E5FFD092E800C092070239CF0FBF99
:10210000DF91CF911F910F91FF90EF90DF90CF90D3
:1021100008952FEF3FEFFC013187208769DC0FB670
:10212000F8948091FD019091FE01A091FF01B09182
:1021300000020FBE9C0180911402882329F068ECF4
:1021400070E080E090E01ACC80911302882309F1BE
:102150000FB6F8948091FD019091FE01A091FF01CE
:10216000B09100020FBEAC0180911302882389F068
:102170000FB6F8948091FD019091FE01A091FF01AE
:10218000B09100020FBE841B950B8B3F910560F34D
:1021900011C00FB6F8948091FD019091FE01A091BD
:1021A000FF01B09100020FBE821B930B853C99404A
:1021B00008F4C1CF08959FB7F89480911402882342
:1021C00021F080910702811102C09FBF089584E031
:1021D0008093E9008AE38093E80010920702F5CF2C
:1021E000EACFE8E0F2E08AE0DF011D928A95E9F7A4
:1021F00088EE93E0A0E0B0E080930B0290930C0295
:10220000A0930D02B0930E028CE491E09183808341
:1022100008954F925F926F927F928F929F92AF92AA
:10222000BF92EF92FF92CF93DF93C82FD0E0CC0FF5
:10223000DD1FFE01EC50FF4FE490FE01EB50FF4F1D
:10224000C491D0E0611102C0F12C01C0FE2CCA0182
:10225000B90134E0660F771F881F991F3A95D1F7AF
:1022600025E130E040E050E074D029013A0180E0FF
:1022700090E0DC0148814E214F111BC0AC01BD0133
:102280004F5F5F4F6F4F7F4F84159505A605B705CC
:10229000E9F1DB01CA01EECFAC01BD014F5F5F4F39
:1022A0006F4F7F4F84159505A605B70579F1DB01C2
:1022B000CA0148814E214F11EFCF20E030E0A90143
:1022C0000197A109B109E881EE21EF1110C02F5F3C
:1022D0003F4F4F4F5F4F4C015D01820E931EA41E76
:1022E000B51E84149504A604B70469F70FC0A5E1D0
:1022F000B0E073D06D5E7F4F8F4F9F4F24E0969577
:102300008795779567952A95D1F703C060E070E0CF
:10231000CB01DF91CF91FF90EF90BF90AF909F9056
:102320008F907F906F905F904F90089597FB072E4E
:1023300016F4009406D077FD08D059D007FC05D0DC
:102340003EF4909581959F4F0895709561957F4FCC
:102350000895A1E21A2EAA1BBB1BFD010DC0AA1FE6
:10236000BB1FEE1FFF1FA217B307E407F50720F0FE
:10237000A21BB30BE40BF50B661F771F881F991F79
:102380001A9469F760957095809590959B01AC01C2
:10239000BD01CF010895052E97FB16F400940FD0D0
:1023A00057FD05D0D6DF07FC02D046F408C0509593
:1023B0004095309521953F4F4F4F5F4F0895909531
:1023C0008095709561957F4F8F4F9F4F0895EE0FC9
:1023D000FF1F0590F491E02D09941DD0A59F900D4D
:1023E000B49F900DA49F800D911D11240895AA1BE8
:1023F000BB1B51E107C0AA1FBB1FA617B70710F0F0
:10240000A61BB70B881F991F5A95A9F78095909521
:10241000BC01CD010895A29FB001B39FC001A39F4D
:10242000700D811D1124911DB29F700D811D11240D
:10243000911D08955058BB27AA270ED075C166D1AB
:1024400030F06BD120F031F49F3F11F41EF45BC1EA
:102450000EF4E095E7FB51C1E92F77D180F3BA176D
:10246000620773078407950718F071F49EF58FC112
:102470000EF4E0950B2EBA2FA02D0B01B90190019F
:102480000C01CA01A0011124FF27591B99F0593FE3
:1024900050F4503E68F11A16F040A22F232F342F2B
:1024A0004427585FF3CF469537952795A795F04079
:1024B0005395C9F77EF41F16BA0B620B730B840B8E
:1024C000BAF09150A1F0FF0FBB1F661F771F881F46
:1024D000C2F70EC0BA0F621F731F841F48F487959E
:1024E00077956795B795F7959E3F08F0B3CF93958D
:1024F000880F08F09927EE0F979587950895D9D002
:1025000008F481E008950CD00FC107D140F0FED04F
:1025100030F021F45F3F19F0F0C0511139C1F3C020
:1025200014D198F39923C9F35523B1F3951B550B97
:10253000BB27AA2762177307840738F09F5F5F4F96
:10254000220F331F441FAA1FA9F333D00E2E3AF0D7
:10255000E0E830D091505040E695001CCAF729D0F1
:10256000FE2F27D0660F771F881FBB1F2617370740
:102570004807AB07B0E809F0BB0B802DBF01FF2770
:1025800093585F4F2AF09E3F510568F0B6C000C1D6
:102590005F3FECF3983EDCF3869577956795B795AA
:1025A000F7959F5FC9F7880F911D9695879597F9C5
:1025B0000895E1E0660F771F881FBB1F621773073E
:1025C0008407BA0720F0621B730B840BBA0BEE1F53
:1025D00088F7E095089504D06894B111D9C00895A2
:1025E000BCD088F09F5790F0B92F9927B751A0F031
:1025F000D1F0660F771F881F991F1AF0BA95C9F797
:1026000012C0B13081F0C3D0B1E00895C0C0672FCF
:10261000782F8827B85F39F0B93FCCF38695779546
:102620006795B395D9F73EF490958095709561952F
:102630007F4F8F4F9F4F0895E89409C097FB3EF45A
:1026400090958095709561957F4F8F4F9F4F9923FF
:10265000A9F0F92F96E9BB279395F695879577957D
:102660006795B795F111F8CFFAF4BB0F11F460FF3D
:102670001BC06F5F7F4F8F4F9F4F16C0882311F095
:1026800096E911C0772321F09EE8872F762F05C0A9
:10269000662371F096E8862F70E060E02AF09A9544
:1026A000660F771F881FDAF7880F9695879597F939
:1026B0000895990F0008550FAA0BE0E8FEEF1616D3
:1026C0001706E807F907C0F012161306E407F50726
:1026D00098F0621B730B840B950B39F40A2661F09A
:1026E000232B242B252B21F408950A2609F4A1403D
:1026F000A6958FEF811D811D089597F99F6780E84A
:1027000070E060E008959FEF80EC089500240A9443
:102710001616170618060906089500240A941216BC
:102720001306140605060895092E0394000C11F4EF
:10273000882352F0BB0F40F4BF2B11F460FF04C09C
:102740006F5F7F4F8F4F9F4F089557FD9058440FF5
:10275000551F59F05F3F71F04795880F97FB991F00
:1027600061F09F3F79F087950895121613061406BD
:10277000551FF2CF4695F1DF08C01616170618064A
:10278000991FF1CF86957105610508940895E89425
:10279000BB2766277727CB0197F908958ADF08F4CE
:1027A0008FEF08950BD0C0CFB1DF28F0B6DF18F05F
:1027B000952309F0A2CFA7CF1124EACFC6DFA0F35B
:1027C000959FD1F3950F50E0551F629FF001729FC6
:1027D000BB27F00DB11D639FAA27F00DB11DAA1FE5
:1027E000649F6627B00DA11D661F829F2227B00D32
:1027F000A11D621F739FB00DA11D621F839FA00DBD
:10280000611D221F749F3327A00D611D231F849F0C
:10281000600D211D822F762F6A2F11249F57504063
:102820008AF0E1F088234AF0EE0FFF1FBB1F661FFE
:10283000771F881F91505040A9F79E3F510570F0B7
:102840005CCFA6CF5F3FECF3983EDCF3869577959F
:102850006795B795F795E7959F5FC1F7FE2B880FB2
:10286000911D9695879597F90895FC0188279927DA
:10287000E89421912032E9F3293010F02E30C8F38A
:102880002B3239F02D3231F4689403C032D0820FEC
:10289000911D219120532A30C8F31EF49095819503
:1028A0009F4F0895FA01A191B081009719F41097F4
:1028B000E1F0CD01DC01CD010D90002011F4C0014B
:1028C00013C0FB012191222319F02015D9F7F3CF72
:1028D000FB012191201519F41E92119606C02223A6
:1028E000C1F70D900020A1F7D001FA01A193B083A8
:1028F00008957AE0979F902D879F802D910D112448
:062900000895F894FFCFDA
:102906000C000A000300020001000050C3477017C4
:1029160006000A00015573CB478F035946B80B00D2
:10292600000A000000A08601004000E1000000004F
:10293600084F4B0020003A00496E76616C696420AE
:10294600436F6D6D616E640000000000070F850F18
:082956001D0F560F410FF01098
:00000001FF
